:020000040800F2
:10000000004B002001010008F94400080D3B0008E6
:10001000894400088D2200081178000800000000C3
:10002000000000000000000000000000E969000876
:100030006B2E00080000000099580008D1700008DD
:100040001B0100081B0100081B0100081B01000820
:100050001B0100081B0100081B0100081B01000810
:100060001B0100081B0100081B0100081B01000800
:100070001B0100081B0100081B0100081B010008F0
:100080001B0100081B0100081B010008D9760008AD
:1000900039770008FD2200081B0100081B01000839
:1000A0001B0100081B0100081B0100081B010008C0
:1000B00025710008297100081B0100081B010008B8
:1000C0001B0100081B0100081B0100081B010008A0
:1000D0001B01000875750008797500087B7500081C
:1000E000053600081B0100081B010008DFF80CD0D2
:1000F00000F066FC00480047C1840008004B002067
:100100000648804706480047FEE7FEE7FEE7FEE7B1
:10011000FEE7FEE7FEE7FEE7FEE7FEE7D570000834
:10012000ED00000840EA01039B0703D009E008C97D
:10013000121F08C0042AFAD203E011F8013B00F8AC
:10014000013B521EF9D27047D2B201E000F8012BF8
:10015000491EFBD270470022F6E710B50446084658
:10016000114602462046FFF7EFFF204610BD01462C
:10017000002000E0401C0A5C002AFBD17047F0B46C
:1001800080EA0102D20F4300B3EB410F02D20346D3
:10019000084619464B0042D0C30DDDB2C1F3C75427
:1001A0002C1B202C35DAC1F3160141F4000502B1F5
:1001B0006D42C4F1200605FA06F125412844B3EB4F
:1001C000D05F23D0C2B1012CA0EBC35009DCF0BC3E
:1001D0004FF0004202EAC35200F50000DBB200F02B
:1001E00032BB400000F1807000EBC350A0F1807082
:1001F00040EAD170490009E0490841EAC071A0EB2A
:10020000C35000F50000400800EBC350F0BC00F004
:1002100011BB5142012303EB4101801AF6E7F0BC08
:10022000704781F00041AAE780F00040A7E780EA2C
:10023000010210B502F00042400026D04B0023D04E
:100240004FEA106101EB1361C0F35600C3F356038C
:1002500040F4000043F40003A0FB0330A1F17F0150
:100260004FEA00401C0401D000F1010050EA1340A5
:1002700001D44000491EC3B20C0604EBD010401C50
:100280004008802B02D003E0002010BD20F00100C8
:10029000002900DA0020104310BD80EA010202F0BC
:1002A000004330B430F0004221F0004015D0A0B13E
:1002B000C0F3C755C2F3C754C2F31601C0F316000A
:1002C000651B41F4000140F400007D35814201D3FB
:1002D0006D1C00E04900002D02DA30BC00207047A0
:1002E0004FF400020024814201D3091A144352083A
:1002F0004FEA4101F7D151B1814202D14FF00041A3
:1003000005E002D24FF0010101E06FF0010104EBC2
:10031000C55030BC184400F08DBA420005D0C0F37F
:10032000C7525242914201DC0020704700EBC1509D
:1003300070472DE9FE4F074681EA0300C00F0E46C5
:10034000019021F0004123F00044B81AA14105D2E8
:100350003846314617461E460B46024623F00040FB
:10036000104304D13846314603B0BDE8F08F350D57
:10037000C5F30A00C3F30A510290401A00904028C6
:1003800067DAC3F3130040F4801B0198924620B152
:100390000023D2EB030A63EB0B0B00985946C0F124
:1003A0004002504600F015FA80460C465046594629
:1003B000009A00F02DFAC0197141EF1785EA115328
:1003C0003B433FD0019A4AB3009A012A11DC002234
:1003D000801A61EB05514FF0004303EA0555CDE962
:1003E0000025801841F580114246234600F067FA47
:1003F000BAE72E050025401B61EB0601401941F5C7
:100400008012001852412818A6F5001343EB020190
:1004100040EAD47018EB0808644113E064084FEA1E
:1004200038084FF0000244EAC0744FEA0553801ABE
:1004300061EB0301801841F5801149084FEA300053
:10044000801859414246234603B0BDE8F04F00F002
:1004500029BA0198012240000023D0EB020263EB8D
:10046000E07301984FEAE074381A66EB0401EBE799
:1004700083F000435DE781F000415AE72DE9FE4F2C
:1004800081EA030421F0004504F0004423F0004118
:100490004FF0000A009450EA050302D052EA01032B
:1004A00004D10020014603B0BDE8F08FC1F30A5328
:1004B000C5F30A542344A3F2F3330193A0FB02B320
:1004C000C5F3130545F4801CC1F3130141F48018F2
:1004D0000CFB023300FB083E810A930A41EA8C516F
:1004E00043EA8853A1FB03474FEA9C2505FB0373AE
:1004F0004FEA982601FB06373D05260545EA1435E7
:10050000BBEB06016EEB0503850E920E45EA8C15DA
:1005100042EA8812A5FB0206261E67EB00070C0DB7
:1005200044EA0334A61947EB1350C1F313044FF008
:1005300000031946E5FB02014FEA033545EA14556D
:10054000019B4FEA0432009CA3F10C03CDE900A407
:1005500045EA060502932B4600F0B1F9A3E72DE921
:10056000F04D81EA030404F0004B21F000471446EB
:100570004FF0000A23F0004150EA070220D054EA6D
:1005800001021DD0C1F30A550246C1F31300C7F39F
:100590000A56C7F3130340F4801143F48013A6EB0B
:1005A0000508101BD64608F2FD3873EB010002D394
:1005B00008F1010801E092185B41B8F1000F03DA7D
:1005C00000200146BDE8F08D00204FF4801506465E
:1005D00007460EE0B2EB040C73EB010C04D3121BC4
:1005E000064363EB01032F436D084FEA3000921876
:1005F0005B4150EA050CEDD152EA030012D082EAC9
:10060000040083EA0105284303D100224FF0004390
:1006100008E0101B8B4102D20122002302E06FF0A0
:10062000010253101AEB060047EB085110EB0A00C9
:1006300041EB0B01BDE8F04D00F034B9C10F80EA89
:10064000E0700844CA079623002100F0FCB8962306
:100650000022114600F0F7B80EB5002240F23343F5
:10066000CDE9002202931346002100F028F903B0DF
:1006700000BD20F00040C10DC0F3160040F40000A2
:100680007F2901DA00207047962903DCC1F1960129
:10069000C8407047963988407047C1F30A52C1F389
:1006A000130140F2FF3341F480119A4201DA002035
:1006B000704740F233439A42A2F2334202DC524284
:1006C00000F096B89040704700F0004230F00040D3
:1006D0000DD0C10D01F5607142EA01510022C0F355
:1006E0001600520742EAD00240071143704700202B
:1006F0000146704701F0004230B421F0004150EA59
:10070000010306D00B0DA3F56073C1F31301002B99
:1007100002DC30BC00207047440F44EAC104C10031
:10072000A01830BC00EBC35000F084B8002801DBF7
:10073000C0F10040002901DBC1F100418142704756
:1007400030B50B46014600202022012409E021FAA1
:1007500002F59D4205D303FA02F5491B04FA02F59E
:100760002844151EA2F10102F1DC30BD2DE9F05F35
:100770000546002092469B46884606468146402410
:100780001DE0284641464746224600F031F8B0EBCE
:100790000A0052465B4671EB0B0110D31046194616
:1007A000224600F016F82D1A67EB01084F46224644
:1007B0000120002100F00DF817EB00094E41201E2A
:1007C000A4F10104DDDC484631462A464346BDE833
:1007D000F09F202A04DB203A00FA02F10020704743
:1007E0009140C2F1200320FA03F31943904070476F
:1007F000202A04DB203A21FA02F00021704721FA76
:1008000002F3D040C2F120029140084319467047DC
:10081000202A06DBCB17203A41FA02F043EAE073C4
:1008200006E041FA02F3D040C2F1200291400843B1
:10083000194670470029A8BF7047401C490008BFEF
:1008400020F00100704710B4B0FA80FC00FA0CF000
:1008500050EA010404BF10BC704749B1CCF1200438
:1008600021FA04F411FA0CF118BF012121430843C5
:10087000A3EB0C01CB1D4FEA00614FEA102048BFEB
:100880000020BCBF10BC704700EBC35010440029CF
:10089000A4BF10BC7047401C490008BF20F00100F5
:1008A00010BC704710B5002B08DA401C41F1000164
:1008B00092185B411A4301D120F0010010BD2DE9CF
:1008C000FF4D934611B1B1FA81F202E0B0FA80F225
:1008D00020329246FFF77DFF039A0746884640EA9A
:1008E0000B0011435B46084304D13846414604B02F
:1008F000BDE8F08D114653EA020016D0CAF140025D
:100900005846FFF775FF04460D464FF0010658465E
:1009100052460399FFF75DFF084300D10026344398
:1009200045EAE675274345EA08080E984FF00005AA
:10093000A0EB0A014FEAD7200A314FEA47532A4673
:1009400040EA48504FEAD82402D500200146CEE7BD
:10095000281844EB0151DDE90C45001904B0694148
:10096000BDE8F04D9EE7C1F30A52C1F3130140F216
:10097000FF3341F480119A4202DA002001467047A9
:1009800040F233439A42A2F2334202DC5242FFF772
:100990002FBFFFF71EBF000030B5002904DB4FF06A
:1009A0000044404264EB0101002B04DB4FF00044A3
:1009B000524264EB0303994208BF904230BD0000ED
:1009C000064C074D06E0E06840F0010394E807009C
:1009D00098471034AC42F6D3FFF78CFBC088000870
:1009E000E088000870B501EB020410F8015B15F017
:1009F000070301D110F8013B2A1106D110F8012B91
:100A000003E010F8016B01F8016B5B1EF9D12B07B5
:100A100005D40023521E0FD401F8013BFAE710F869
:100A2000013B02F10202A1EB030303E013F8015BB7
:100A300001F8015B521EF9D5A142D6D3002070BD4A
:100A40000029816802D041F0010101E021F001019B
:100A5000816070470029816802D041F4807101E013
:100A600021F4807181607047014600208968490740
:100A700000D501207047014600208968090700D58C
:100A80000120704730B542680E4B0C791A400B6854
:100A900042EA04221343436083680B4A4D791340B2
:100AA000D1E9024243EA450322431A438260C26A03
:100AB000097C22F47002491EC9B242EA0151C162A6
:100AC00030BD0000FFFEF0FFFDF7F1FF70B5072518
:100AD00009290AD9C468A1F10A0606EB4606B54001
:100AE000AC43B3401C43C46007E0046901EB41061A
:100AF000B540AC43B3401C4304611F23072A09D20D
:100B0000446B521E02EB820293409C4391400C4383
:100B1000446370BD0D2A09D2046BD21F02EB82021E
:100B200093409C4391400C43046370BDC46A0D3AEA
:100B300002EB820293409C4391400C43C46270BD1F
:100B4000816841F00801816070470029816802D006
:100B500041F4A00101E021F4A001816070478168A7
:100B600041F00401816070472DE9F041184D0024E7
:100B70000226C5F8AF42687A38B3022813D005F2CE
:100B800019376E7278681349FFF787FB05F20E3844
:100B90000146D8F80700FFF7F2FAC8F807007C60B2
:100BA0003C7206F0B7FB0C49AC712E7201208870C4
:100BB0000A48C5F8EA4085F8E34000680470697A9D
:100BC000BDE8F04106A003F084BC6E72EBE70000C4
:100BD00078180020000010426C0000202001002046
:100BE0004F6264446174612E456E6765725F737411
:100BF000617475733D25640D0A0000002DE9F04114
:100C000007462948294E0025A6F12504874233DDF1
:100C100027486571417A01290FD00121417206F000
:100C200039FBA57104F1100002F06AFF01F090FD9C
:100C3000D6F801006438C6F8010038466169FFF74C
:100C400075FD15D1A079401CC0B2A071142810D335
:100C500016486571A571153802F052FF3570701C89
:100C600002F04EFF13A006F0E8FAFFF77DFF00E068
:100C7000A57104F081FD13E06079401CC0B2607181
:100C800005280DD309486571153802F039FF357014
:100C9000701C02F035FF10A006F0CFFAFFF764FFDA
:100CA0006761BDE8F081000000004040F1000020D5
:100CB00078180020C1ACD0F83230B4CEB6C1C8A18B
:100CC000D7AACBD9D6B5B9CCB6A8C8CFCEAACFA80B
:100CD000BBF00D0A00000000D7AACBD9D6B5B9FDEC
:100CE000B5CDC8CFCEAACFA8BBF00D0A000000003A
:100CF00070B501780446002519B1002001290BD1F7
:100D000009E06421601C01F0C5FF48B100F00AF859
:100D10000120207004E001252070601C02F0F0FE2C
:100D2000284670BD70B5174D002404212868447111
:100D3000C1710121C17380F8134180F81942FF216C
:100D40001430FFF708FA2868FF2100F58D70FFF7CF
:100D500002FA286880F8154180F81B4201780729BB
:100D600006D0092904D0062904D0082902D005E0BC
:100D7000054901E040F2DF71C0F80110BDE87040A4
:100D800000F0E8BC20010020F133DB182DE9F04130
:100D90000146032803D0072901D00A294CD1634D0D
:100DA000002428684471C1710121C17380F8134186
:100DB00080F81942FF211430FFF7CDF92868FF2190
:100DC00000F58D70FFF7C7F9286880F8154180F8A5
:100DD0001B420178072906D0092904D0062904D02E
:100DE000082902D005E0524901E040F2DF71C0F865
:100DF000011000F0AFFC2C68607901281CD194F838
:100E000013014C4EF0B32078062817D3607D04F10F
:100E1000160700254006040E0CE07819795D40782D
:100E200000EB01200104090C02D0B01C07F0A6FA67
:100E3000AD1CEDB2A542F0D3BDE8F081002424E062
:100E400000EBC40715377878397800EB01200104EE
:100E5000090C02D0B01C07F091FAF878B97800EBD1
:100E600001200104090C02D0B01C07F087FA787940
:100E7000397900EB01200104090C02D0B01C07F005
:100E80007DFA00E007E0641CE4B2286890F81511D0
:100E9000A142D5D8D0E794F819020028CCD0207808
:100EA000062817D394F81B0104F58E770025400619
:100EB000040E0CE07819795D407800EB0120010404
:100EC000090C02D0B01C07F059FAAD1CEDB2A542D6
:100ED000F0D3B1E7002423E000EBC40707F21B17AF
:100EE0007878397800EB01200104090C02D0B01C9D
:100EF00007F044FAF878B97800EB01200104090CF6
:100F000002D0B01C07F03AFA7879397900EB012069
:100F10000104090C02D0B01C07F030FA641CE4B2E2
:100F2000286890F81B12A142D6D885E7200100203E
:100F3000F133DB18A91E00202DE9F041224C844634
:100F400000262068354632464671C17306E000BF70
:100F50001CF802308718521CFB71D2B28A42F7D3B8
:100F600080F8135180F81952FF211430FFF7F3F87D
:100F70002068FF2100F58D70FFF7EDF8206880F8FC
:100F8000155180F81B520178072906D0092904D091
:100F9000062904D0082902D005E00C4901E040F2FE
:100FA000DF71C0F8011000F0D5FB206841790129FC
:100FB00007D190F8131119B990F81902002801D03F
:100FC00001263046BDE8F08120010020F133DB1816
:100FD00070B5044600780E46002538B101280FD0C0
:100FE000002602281AD003282CD11EE06421601CA0
:100FF00001F050FE30B3304602F006FB012008E05D
:101000006421601C01F046FEE0B10320FFF7BEFE44
:1010100002202070601C02F073FD13E06421601C4C
:1010200001F038FE70B1072005E06421601C01F07A
:1010300031FE38B10A20FFF7A9FE2670601C02F0CD
:101040005FFD0125284670BDF8B5474811210746C8
:10105000FFF781F809208DF8000002208DF80100CB
:1010600001466846FFF768FF70B34048404B01688F
:1010700091F8130158B30878062801D317312EE0F0
:10108000002210461CE002B301EBC2041E18E57DED
:1010900086F89E52401CC0B21E18257E86F89E52CD
:1010A000401CC0B21E18657E86F89E52401CA47E6D
:1010B000C0B21D18401C521C85F89E42C0B2D2B26C
:1010C00091F815419442DED83EE08C7EF1E791F82C
:1010D0001902C8B30878062806D301F21D1111229F
:1010E0003846FFF71FF82FE00022104628E0BAB379
:1010F00001EBC20404F21D1403EB0006257886F808
:101100009E5200F10100C0B203EB0006657886F83C
:101110009E5200F10100C0B203EB0006A57886F8EC
:101120009E5200F1010094F80340C0B203EB0005A9
:1011300000F1010002F1010285F89E42C0B2D2B274
:1011400091F81B429442D2D80AA006F076F81122F8
:101150003946022006F03AFB08A006F06EF8F8BD0A
:10116000FFE791F82041E1E7161B00202001002055
:10117000781800205B56494E5D3A00000D0A0000C9
:1011800070B5134CE07818B1002501281AD106E09B
:101190000F480C3002F0B4FC0120E07013E00C4862
:1011A00042F210710C3001F075FD60B10848143046
:1011B000417839B1C07828B9012240F2651105485B
:1011C00004F03AFDE570BDE8704003F005BA000098
:1011D00058000020BC010020F8B506460D46144614
:1011E000684602F08DFC206800992A460B1A3146A9
:1011F0001B4807F0D9F91A484E38417DA94200D260
:1012000045752068009E301A6843FFF720FA616830
:10121000FEF7B5FF6060217A491CC9B22172052929
:101220001BD31049FFF739F80D4D60600146D5F822
:101230000700FEF7A4FFC5F80700A5F20E35D5F8A4
:10124000B702FFF704FA6168FEF799FFFFF711FA9A
:10125000C5F8B7020020606020722660F8BD00006B
:10126000861B0020000010422DE9F84301215B4855
:1012700002F006FB4FF48076ADF800600124DFF841
:1012800060918DF8024010258DF80350694648465C
:1012900002F0A4FA2020ADF800008DF802408DF88D
:1012A00003506946484602F099FA4020ADF8000024
:1012B0008DF802408DF803506946484602F08EFAD8
:1012C000ADF8004000208DF803006946484602F062
:1012D00085FA3146484602F008FB48F28200ADF834
:1012E00000008DF802408DF803506946484602F030
:1012F00075FA4FF2FB30ADF800003A4F8DF802401E
:101300008DF803506946384602F068FA4FF46040A1
:10131000ADF80000DFF8D0808DF802408DF8035062
:101320006946404602F05AFA0221484602F0DBFACA
:101330002021484602F0D7FA4021484602F0D5FA6B
:101340008021484602F0CFFAE4032146484602F0E5
:10135000CAFA0121384602F0C6FA0221384602F0E4
:10136000C2FA0821384602F0BEFA1021384602F0CF
:10137000BAFA2021384602F0B6FA4021384602F087
:10138000B2FA8021384602F0AEFA3146384602F011
:10139000AAFAA111384602F0A6FAE110384602F086
:1013A000A2FAA5102946384602F09DFA6610314689
:1013B000384602F098FA2146384602F094FA294657
:1013C000404602F090FA3146404602F08CFA21463F
:1013D000404602F088FABDE8F883000000023000C1
:1013E00000080140000C01400010014038B54FF4E6
:1013F000A06003F0BFF825208DF8000001248DF8CF
:10140000014000258DF802508DF80340684603F036
:1014100083F826208DF800008DF801408DF80240F9
:101420008DF80340684603F077F827208DF8000018
:101430008DF801508DF802408DF80340684603F0A6
:101440006BF838BD01484088704700002800002034
:1014500002F078BBF0B5012191B0084605F094F890
:101460000121480205F0B4F82D4D00212846FFF770
:10147000E7FA2C4F0021384601F058FC284801A912
:101480004C30009028480024012651C1A81504942E
:10149000CDE9054080000790202008900002CDE9AA
:1014A0000904384601F04EFC6946384601F0C0FC9C
:1014B0008DF830600B948DF831604FF46020CDE9E9
:1014C0000D048DF83C600BA92846FFF7DBFA0623D4
:1014D000012200212846FFF7F9FA01212846FFF7EB
:1014E000B9FA01212846FFF7ABFA2846FFF728FB97
:1014F0002846FFF7C0FA0028FAD12846FFF72FFB4D
:101500002846FFF7B1FA0028FAD101212846FFF753
:101510001CFB0121384601F009FC11B00020F0BD90
:1015200000240140080002402A00002010B54FF4BA
:10153000004005F01FF80121084605F025F80121BB
:1015400044F61D2005F044F801210C4805F028F868
:10155000FFF78AFE4FF41651022000F06FF84FF4A7
:10156000E131012000F06AF800F046F8FFF772FF61
:1015700000F0DEF8BDE81040FFF738BF01000600BC
:1015800005480168054A01F4E06141EA0201016091
:10159000BFF3408FFEE700000CED00E00400FA0509
:1015A0000B4A0C4B5068401C5060196841B1491EF1
:1015B000196000280BD10120107007A005F03DBE76
:1015C0000A220AA1022006F001F9FFF7D9FF7047AD
:1015D000280000205000002020D6F7CAB1D6D3BF83
:1015E000AACABCC7E5C1E30D0A000000536F6674C8
:1015F000446F67210D0A000010B5042005F05CFD62
:101600000C484FF47A710068B0FBF1F0B0F1807FC4
:101610000ED220F07F414FF0E020491E4161064A82
:10162000F02111704FF0000181614FF0070101615D
:1016300010BD00001400002023ED00E0F0B585B0DF
:1016400002460020ADF80800ADF80A00ADF80C0025
:10165000ADF810000C20ADF80E0001910220182109
:101660002E4D460240F22557012A28D00424022A92
:101670003DD0032A21D1ADF800608DF80200284D3D
:101680008DF803106946284602F0A8F86002ADF80C
:1016900000008DF803406946284602F09FF8214C6F
:1016A00001A9204605F0BAFF01223946204605F07F
:1016B0009CFF0121204605F068FF05B0F0BD4FF406
:1016C0000072ADF800208DF802008DF80310694615
:1016D000284602F083F8ADF8006048208DF803003A
:1016E0006946284602F07AF801A90F4CD9E7ADF80F
:1016F00000408DF802008DF803106946284602F07C
:101700006DF80820ADF800008DF8034069462846C2
:1017100002F064F801A9054CC3E70000000801408D
:10172000000C0140004800400038014000440040E7
:1017300010B545F2555002F019FA052002F00AFAE8
:1017400040F6FF7002F00CFA02F0FCF9BDE8104020
:1017500002F0F0B910B5044600780A281DD2DFE87F
:1017600000F01C05090D111115191519204600F07E
:10177000CDFB12E0204600F097FC0EE0204600F082
:10178000E5F90AE0204600F0CDFA06E0204600F038
:10179000FDF802E0204600F009F86079012803D046
:1017A000A079401CA07110BD0020FBE72DE9F04797
:1017B00004466CA094B090E80E00C068CDE9081211
:1017C000CDE90A306BA0D0E901320168C068CDE9EB
:1017D0000C13CDE90E2010A802F092F901F006FDDD
:1017E00001F018FDE07B8DF8250004F110050020C4
:1017F00008AB05E021181A18C979401C9171C0B2D4
:10180000E17B8142F6D85B1D0093E07BD4F8012098
:10181000401CC3B20021012001F0E4FD0DF11009CC
:101820004FF00108022710A802F06AF9002604AB65
:101830000093002111AB02AA084601F099FD80B384
:101840009DF81020100924D0D1B2B8EB111FEAD1B5
:101850004C4802998843E6D1296002984A4900061B
:1018600041EA104A9DF810009DF8111000F00F0099
:1018700001EB0020FF2800D9FF2085F80301062690
:10188000324609F10201281DFEF74CFC0DF130092A
:1018900051E03EB1012E13D0022EC8D114B0BDE8E4
:1018A000F0871CE00298206184F8132109F10101FE
:1018B00004F11400FEF736FC84F805800126B6E733
:1018C0000298C4F8160184F8192209F1010104F5FF
:1018D0008D70FEF727FC84F805800226A7E7962185
:1018E00010A801F0D7F90028A1D060790028D5D13F
:1018F0006771D3E710A802F003F904AB009300214D
:1019000011AB02AA084601F033FD20B32868029902
:10191000884220D19DF81000B7EB101F1BD1A819E9
:10192000DDF811104160BDF8151001819DF8171008
:10193000F61D8172F6B209F10503009308235246A1
:101940000021012001F04EFD95F80301B042D1D8ED
:1019500084F80580A2E7642110A801F09BF9002813
:10196000CBD0C5E78818DA18F102010000000000AA
:10197000000000008818DA10F130010A00000000B1
:101980000000000000F1DA18F100DA182DE9F04744
:1019900068A2044692B007CA0CAB07C368A209ABA1
:1019A00007CA07C30FA802F0ABF801F01FFC01F053
:1019B00031FC04F1100500200CAB05E021181A18C9
:1019C000C979401C1171C0B2E17B8142F6D8C8B21E
:1019D000DB1C8DF833000093E07B0021401CC3B278
:1019E000D4F80120084601F0FDFC0DF108094FF084
:1019F000010802270FA802F083F8002602AB00932B
:101A0000002110AB06AA084601F0B2FC80B39DF895
:101A10000820100924D0D1B2B8EB111FEAD10698E2
:101A2000A0F5FD600728E5D80698286006989DF87F
:101A30000810A0F1080A9DF8090001F00F0100EB61
:101A40000120FF2800D9FF2085F80301DDF80A00F6
:101A50006860BDF80E00062628810DF1240951E0CA
:101A60003EB1012E13D0022EC8D112B0BDE8F087CE
:101A70001CE00698206184F8132109F1010104F1AA
:101A80001400FEF74FFB84F805800126B6E70698A0
:101A9000C4F8160184F8192209F1010104F58D70CA
:101AA000FEF740FB84F805800226A7E796210FA8E1
:101AB00001F0F0F80028A1D060790028D5D1677135
:101AC000D3E70FA802F01CF802AB0093002110AB83
:101AD00006AA084601F04CFC28B3286806998842FB
:101AE00021D19DF80800B7EB101F1CD1A819DDF813
:101AF00009104160BDF80D1001819DF80F10F61D11
:101B00008172F6B209F10303009300219DF824309D
:101B10005246084601F066FC95F80301B042D0D861
:101B200084F80580A1E764210FA801F0B3F800282C
:101B3000CAD0C4E70807DF0201000000000000006F
:101B40000807E030010A0000000000002DE9F04F16
:101B5000044670A085B0D0E9001280680091CDE9FC
:101B60000120012002F0F6F900206B4605E0211863
:101B70001A18C979401CD170C0B2E17B8142F6D8F5
:101B800000200246CD1C04E01E5C401C3244D2B250
:101B9000C0B28542F8D8D81C0A54E07B1946001D13
:101BA000C0B205F01FF85E4D4FF0010903A8696A45
:101BB00081F8139001F0A4FF696A4FF0000A04F560
:101BC0008D7081F866A1574604F1140BA846049065
:101BD00002F0F0F9D8F8241091F86611D1B300257D
:101BE00063E000EB0510216990F84820914232D162
:101BF000E17990F849004031814254D1012703A88E
:101C000001F07EFF94F81301B0B194F81521706AC9
:101C10000BEBC203002100EB0512501890F849604D
:101C20000846491CC9B21E540829F6D394F8150178
:101C3000401C84F8150136E0706A00EB051191F83C
:101C400045004931C01EC2B284F813215846FEF740
:101C500069FAEBE736E0D4F81611914223D1E17925
:101C600090F84900403181421DD1012703A801F0BD
:101C700047FF94F81902A0B394F81B22049800219E
:101C800000EBC203706A00EB0512501890F849602F
:101C90000846491CC9B21E540829F6D394F81B0201
:101CA000401C84F81B026D1CEDB2D8F82400464697
:101CB00090F84410A94294D880F844A080F843A03A
:101CC00080F866A1E7B1012F82D1642103A800F05A
:101CD000E1FF00283FF47CAF84F8059005B0BDE833
:101CE000F08FFFE7706A00EB051191F8450049316C
:101CF000C01EC2B284F819220498FEF713FACDE789
:101D0000C82103A800F0C6FF0028E3D002206071BC
:101D1000E4E70000686AF101000000000000000034
:101D2000080100202DE9F04F74A10446D1E900021A
:101D300085B08968CDE900020291012002F00AF91C
:101D400000206B4605E02118CA791918401CCA709A
:101D5000C0B2E17B8142F6D89DF80000CAB200F023
:101D6000C00010448DF8000000200246CD1C04E0A5
:101D70001E5C401C3244D2B2C0B28542F8D8D81C96
:101D80000A54E07B1946001DC0B204F02BFF5E4DE3
:101D90004FF00109686A80F8139003A801F0B0FEC3
:101DA000696A4FF0000A04F58D7081F866A1574604
:101DB00004F1140BA846049002F0C4FAD8F82410D9
:101DC00091F86611D1B3002563E000EB051021699D
:101DD00090F84820914232D1E17990F849004031A1
:101DE000814254D1012703A801F08AFE94F813011F
:101DF000B0B194F81521706A0BEBC203002100EB1F
:101E00000512501890F849600846491CC9B21E5482
:101E10000829F6D394F81501401C84F8150136E022
:101E2000706A00EB051191F845004931C01EC2B23D
:101E300084F813215846FEF775F9EBE736E0D4F83D
:101E40001611914223D1E17990F849004031814245
:101E50001DD1012703A801F053FE94F81902A0B385
:101E600094F81B220498002100EBC203706A00EB77
:101E70000512501890F849600846491CC9B21E5412
:101E80000829F6D394F81B02401C84F81B026D1C31
:101E9000EDB2D8F82400464690F84410A94294D8F0
:101EA00080F844A080F843A080F866A1E7B1012F34
:101EB00082D1782103A800F0EDFE00283FF47CAF2A
:101EC00084F8059005B0BDE8F08FFFE7706A00EB7D
:101ED000051191F845004931C01EC2B284F819229B
:101EE0000498FEF71FF9CDE7C82103A800F0D2FE41
:101EF0000028E3D002206071E4E70000C233F10162
:101F00000000000000000000080100202DE9FF474C
:101F100061A2044607CA8DE807000020694605E073
:101F20002218D3790A18401CD370C0B2E27B8242D7
:101F3000F6D8D0B2C01CC1B2684601F0C7FDE27B42
:101F40000DF10301574F50544FF00008F969424614
:101F500081F84B8081F84A8081F80280E07B6946F5
:101F6000001DC0B204F0A6FE03A801F0C9FD0025C3
:101F700004F1140904F58D7A04F02CFAF8698078DC
:101F800098B3002557E000EB0511236991F84F2025
:101F900093422BD1E27991F8503040329A4248D1A5
:101FA00094F81321B2B194F81531002109EBC30361
:101FB00000EB0512501890F850600846491CC9B251
:101FC0001E540829F6D300BF94F81501401C84F86C
:101FD00015012EE091F84C005031001FC2B284F878
:101FE00013214846FEF79EF8EEE73FE0D4F816319D
:101FF00093421ED1E27991F8503040329A4218D182
:1020000094F819223AB394F81B3200210AEBC30367
:1020100000EB0512501890F850600846491CC9B2F0
:102020001E540829F6D300BF94F81B02401C84F804
:102030001B026D1CEDB2F86990F84B10A942A2D8B2
:1020400080F84B8080F84A8080F8028003A801F075
:1020500057FD01250DE091F84C005031001FC2B230
:1020600084F819225046FEF75DF8DDE765B1012DD1
:1020700082D1782103A800F00DFE00283FF47CAF48
:1020800001206071BDE8FF87C82103A800F002FEAF
:102090000028F3D00220F4E7616AF100000000009C
:1020A00000000000080100202DE9FF4761A204465E
:1020B00007CA8DE807000020694605E02218D37999
:1020C0000A18401CD370C0B2E27B8242F6D8D0B26C
:1020D000C01CC1B2684601F0F9FCE27B0DF10301BE
:1020E000574F50544FF00008396A424681F84B80F0
:1020F00081F84A8081F80280E07B6946001DC0B209
:1021000004F0E6FE03A801F0FBFC002504F114092D
:1021100004F58D7A05F0ECFB386A807898B30025D9
:1021200057E000EB0511236991F84F2093422BD122
:10213000E27991F8503040329A4248D194F8132114
:10214000B2B194F81531002109EBC30300EB05127D
:10215000501890F850600846491CC9B21E5408290E
:10216000F6D300BF94F81501401C84F815012EE049
:1021700091F84C005031001FC2B284F81321484638
:10218000FDF7D0FFEEE73FE0D4F8163193421ED1C1
:10219000E27991F8503040329A4218D194F81922DD
:1021A0003AB394F81B3200210AEBC30300EB05128B
:1021B000501890F850600846491CC9B21E540829AE
:1021C000F6D300BF94F81B02401C84F81B026D1C60
:1021D000EDB2386A90F84B10A942A2D880F84B8033
:1021E00080F84A8080F8028003A801F089FC01256C
:1021F0000DE091F84C005031001FC2B284F8192252
:102200005046FDF78FFFDDE765B1012D82D17821C2
:1022100003A800F03FFD00283FF47CAF012060716F
:10222000BDE8FF87C82103A800F034FD0028F3D0E3
:102230000220F4E7686AF1000000000000000000DE
:102240000801002010B54FF400710C48FDF783FF22
:102250000B490A48886141F2060100F50070FDF75C
:102260007AFF4FF401710748FDF775FFBDE8104094
:102270004FF481710448FDF76EBF0000F425002083
:1022800008010020FA370020FE390020142203A1A3
:10229000022005F09BFA02F077F9000042757346C0
:1022A00061756C74457863657074696F6E210D0A91
:1022B0000000000030B585B004460D4614220AA186
:1022C0006846FDF72FFF64B1684600EB15110978E9
:1022D000217005F00F011DF801006070002005B0AD
:1022E00030BD4FF0FF30FAE7303132333435363716
:1022F00038394142434445460000000070B50D4C5A
:102300000D490E4DE08800EB800001EB80020121B9
:10231000284600F06DF9E088401C81B2E180202958
:1023200001D30020E0802846BDE87040102100F075
:1023300019B80000FC000020B42000200064004018
:1023400041B101290AD0022903D1816841F4000179
:1023500081607047816841F08001F9E7816841F44C
:102360000041F5E730B5082310240422B1F5007FC1
:102370001DD010DC202929D007DC012921D0042917
:1023800022D0082900D1C46030BD402920D0B1F549
:10239000807FF9D10BE00025B1F5004F06D008DCB5
:1023A000B1F5806F03D0B1F5006FEDD1856142606A
:1023B00030BDB1F5803F0DD0B1F5003FF8D144609C
:1023C00030BD0549816030BDC36030BD036130BDA3
:1023D000046130BD436030BD01010100094910B501
:1023E00088424FF0010101D14C0601E04FF08064BA
:1023F000204604F0E1F82046BDE81040002104F03A
:10240000DBB800000064004021B1016941F0200107
:1024100001617047C16841F02001C1607047000050
:1024200030B5837A334901229A400B6843F00103A7
:102430000B60CB6923EA0203CB61037BA1F5C0618A
:10244000B3B9D1F80C369343C1F80C364388C4882D
:10245000857A43EA044301EBC504C4F84036038897
:102460008488857A43EA044301EBC504C4F8443602
:10247000037B012B14D1D1F80C361343C1F80C3671
:10248000847A036801EBC4044FEA3343C4F840364E
:10249000847A436801EBC4044FEA3343C4F84436FA
:1024A000C37A002BD1F8043605D01343C1F80436A3
:1024B000038913B106E09343F8E7D1F81436934348
:1024C000C1F814360389012B04D1D1F81436134313
:1024D000C1F81436407B012804D1D1F81C06104302
:1024E000C1F81C06D1F8000620F00100C1F8000672
:1024F00030BD000000660040002A426901D00A4356
:1025000000E08A434261704730B50368002223F03F
:102510000203036004684FF6FF7344F00104046093
:1025200000E0521C4468E40701D19A42F9D14268A4
:10253000D2073ED08A79012A02683CD022F080027C
:102540000260CA79012A026838D022F04002026093
:102550000A7A012A026834D022F0200202604A7A04
:10256000012A026830D022F0100202608A7A012A21
:1025700002682CD022F008020260CA7A012A02689E
:1025800028D022F0040202608A78CD7892070C7974
:1025900042EA056242EA04444D790A8844EA055158
:1025A000521E1143C1610268002122F00102026043
:1025B00014E0002030BD42F08002C1E742F040024A
:1025C000C5E742F02002C9E742F01002CDE742F031
:1025D0000802D1E742F00402D5E7491C4268D2075D
:1025E00001D09942F9D14068C007E2D1012030BD45
:1025F00010B400EB0113D3F8B04114F004041472CA
:10260000D3F8B0412FD0E408C2F8044003F5D873E2
:102610001C6804F0020454725C6804F00F049472A5
:102620005C684FEA1424D4749C68D4729C684FEAA6
:10263000142414739C684FEA144454739C684FEA42
:1026400014649473DC68D473DC684FEA1424147443
:10265000DC684FEA14445474DB684FEA13639374E4
:1026600010BCFFF7D1BE640D1460CFE709490A68BA
:1026700042F001020A600A6843F60E7322EA03027E
:102680000A600A6842EA00200860086820F0010039
:1026900008607047006600400268002122F00102D5
:1026A00042F002020260406800F00300022800D1FC
:1026B00001210846704770B50246002093685B010F
:1026C00008D49068000101D5012003E09068C000A3
:1026D00032D5022002EB0012D2F8803103F0010360
:1026E000C2F880310B7A4BB3D2F880414D7A4E68F4
:1026F0001C4345EAC6031C43C2F880418B7A02F5AD
:10270000C07203F00F038B72536823F00F03536002
:1027100053688C7A43EA04035360CB7ACC6843EA6B
:1027200004239360CB7B096943EA0121D1601168DE
:1027300041F00101116070BD042070BDD2F88031FC
:102740004C7A0D68234343EA4553C2F88031D5E7FC
:10275000014801F0D5B90000F20000202DE9F04158
:1027600039A08AB000680690002638A004F065FD04
:1027700000F0D0FE142004F04FFD00F089FD002091
:1027800000F0C2FEDFF8DC804FF47F434FF6FF72AB
:102790004146022000F07EFE012000F075FE324D21
:1027A00009210024A8694FF4837701704471012145
:1027B000C17104720221C17339461030FDF7CBFCA0
:1027C000A869394600F58B70FDF7C5FCA86906AB12
:1027D000264A0461C0F8164100930323002101201A
:1027E00000F000FE08A801F08BF9012402AB009371
:1027F000002109AB07AA084600F0BAFDC8B19DF850
:102800000900412815D19DF80A0090B9079838EAC7
:1028100000010ED1C3B2C0F30722CDE90023020E9E
:10282000C0F30743214612A001F053FE641CE4B23A
:102830000126642108A800F02DFA0028D6D00AB09D
:102840003046BDE8F0810000020100005363616E74
:102850002043616E4578743235304B2E2E2E0D0A92
:102860000000000000F1DA1808010020F133DB1845
:102870004543552564233A253032582530325825B2
:10288000303258253032580D0A0000002DE9F04151
:1028900039A08AB000680690002638A004F0CDFC6C
:1028A00000F038FE142004F0B7FC00F0F1FC00202A
:1028B00000F02AFEDFF8DC804FF47F434FF6FF7212
:1028C0004146022000F0E6FD022000F0DDFD324D21
:1028D00007210024A8694FF4837701704471012116
:1028E000C17104720221C17339461030FDF733FC07
:1028F000A869394600F58B70FDF72DFCA86906AB79
:10290000264A0461C0F816410093032300210120E8
:1029100000F068FD08A801F0F3F8012402AB009371
:10292000002109AB07AA084600F022FDC8B19DF8B6
:102930000900412815D19DF80A0090B9079838EA96
:1029400000010ED1C3B2C0F30722CDE90023020E6D
:10295000C0F30743214612A001F0BBFD641CE4B2A2
:102960000126642108A800F095F90028D6D00AB005
:102970003046BDE8F0810000020100005363616E43
:102980002043616E4578743530304B2E2E2E0D0A63
:102990000000000000F1DA1808010020F133DB1814
:1029A0004543552564233A25303258253032582581
:1029B000303258253032580D0A000000F0B54DA0D5
:1029C00089B00068059000264BA004F036FC00F0AA
:1029D000A1FD142004F020FC00F05AFC002000F0BF
:1029E00093FD00231A461946012000F053FD0021F3
:1029F0004FF4FD62084600F025FC002140F2E97228
:102A0000084600F01FFC002140F2EA72084600F080
:102A100019FC002140F2EB72084600F013FC002183
:102A200040F2EC72084600F00DFC002140F2ED721D
:102A3000084600F007FC002140F2EE72084600F064
:102A400001FC002140F2EF72084600F0FBFB012080
:102A500000F01AFD2E4D08210024A8694FF4837759
:102A6000017044710121C17104720221C1733946A0
:102A70001030FDF770FBA869394600F58B70FDF743
:102A80006AFBA86905AB00210461C0F816410093F8
:102A9000032340F2DF72084600F0A4FC07A801F00F
:102AA0002FF8012401AB0093002108AB06AA0846C9
:102AB00000F05EFCA8B19DF80500412811D19DF8F9
:102AC000060070B90698C0F345113F2909D1C3B279
:102AD000C0F3072221460FA001F0FBFC641CE4B206
:102AE0000126642107A800F0D5F80028DAD009B043
:102AF0003046F0BD020100005363616E2043616EF9
:102B00005374643235304B2E2E2E0D0A0000000017
:102B1000080100204543552564233A2530325825C5
:102B20003032580D0A000000F0B54DA089B00068A1
:102B3000059000264BA004F080FB00F0EBFC142075
:102B400004F06AFB00F0A4FB002000F0DDFC002391
:102B50001A461946012000F09DFC00214FF4FD6249
:102B6000084600F06FFB002140F2E972084600F0D1
:102B700069FB002140F2EA72084600F063FB002185
:102B800040F2EB72084600F05DFB002140F2EC726F
:102B9000084600F057FB002140F2ED72084600F0B5
:102BA00051FB002140F2EE72084600F04BFB002181
:102BB00040F2EF72084600F045FB022000F064FC92
:102BC0002E4D06210024A8694FF4837701704471CB
:102BD0000121C17104720221C17339461030FDF721
:102BE000BAFAA869394600F58B70FDF7B4FAA869FE
:102BF00005AB00210461C0F816410093032340F2A5
:102C0000DF72084600F0EEFB07A800F079FF012410
:102C100001AB0093002108AB06AA084600F0A8FB10
:102C2000A8B19DF80500412811D19DF8060070B9A2
:102C30000698C0F345113F2909D1C3B2C0F307225A
:102C400021460FA001F045FC641CE4B2012664217A
:102C500007A800F01FF80028DAD009B03046F0BD10
:102C6000020100005363616E2043616E537464354A
:102C700030304B2E2E2E0D0A0000000008010020DF
:102C80004543552564233A25303258253032580DB6
:102C90000A00000070B50B4E0268054673680024F8
:102CA000981A934201D2D0431844884207D3114462
:102CB00029603078012410B103A001F00AFC2046FD
:102CC00070BD000028000020CFB5CDB3BCD3436851
:102CD00065636B7379733D3D25640D0A0000000048
:102CE00070B50A4D0E460268696800248B1A91423D
:102CF00001D2D2435318B34206D30160287801248D
:102D000010B103A001F0E5FB204670BD28000020B3
:102D1000CFB5CDB3B8B3D6B5436865636B7379737C
:102D200069693D3D25640D0A000000000029016825
:102D300002D041F0010102E04FF6FE721140016045
:102D40007047000002684FF6FE7300211A400260CF
:102D5000016041608160C1603349334A0839904263
:102D600003D1486840F00F0006E02F4A1432904229
:102D700004D1486840F0F000486070472A4A283281
:102D8000904203D1486840F47060F5E7264A3C322F
:102D9000904203D1486840F47040EDE7224A503237
:102DA000904203D1486840F47020E5E71E4A64323F
:102DB000904203D1486840F47000DDE71A4A783247
:102DC000904203D1486840F07060D5E7174A9042BE
:102DD00004D1D1F8040440F00F0007E0134A143284
:102DE000904206D1D1F8040440F0F000C1F8040488
:102DF00070470E4A2832904204D1D1F8040440F4BE
:102E00007060F3E7094A3C32904204D1D1F80404DF
:102E100040F47040EAE7054A50329042E8D1D1F8D8
:102E2000040440F47020E1E7080002400804024076
:102E300070B5036847F6F0729343D1E904460D6A12
:102E40008A6834432A432243D1E906542A43224361
:102E5000D1E909542A4322431A430260CA684260F6
:102E60000A6882604968C16070BD70472DE9F04F03
:102E700087B083464FF0000A05A8CDF800A000F007
:102E80003FFEDFF8F8804FF080494FF4006700BF45
:102E9000FEF7DEFA3946404600F01EFD78BB4FF6DD
:102EA000FF70ADF808000720ADF804000020ADF871
:102EB0000A00ADF8060001A94C46484604F05EF948
:102EC0000121204604F03AF900220121204604F0B5
:102ED0004BF90021204604F04FF90121204604F06F
:102EE00037F900252C462E4604A800F009FE00BF45
:102EF000FEF7AEFA322104A8FFF7CCFE68B14FF41A
:102F0000FA6105A8FFF7C6FE0028C1D01CA004F096
:102F100094F9009807B0BDE8F08F394640462DB1CE
:102F200000F0DAFC0028E3D10025E1E700F0D4FC52
:102F30000128DDD104A800F0E3FD484604F012F9B1
:102F4000034601251CB1514600F040FC0644641CB8
:102F5000E4B29A46042CCBD10B48B0FBF6F42046E1
:102F600001F0D6F80021484604F0F2F8214607A007
:102F7000CBF8004001F0ADFA0120CBE7000C014096
:102F800031730D0A00000000808D5B000D0A44655E
:102F900074656374526174653A25640D0A0000001B
:102FA0002DE9FF414005000C09B1102300E000238A
:102FB00003430120554A0027044600BFD2F80456B7
:102FC00004FA00F10D4276D0D2F80C560D4272D1BF
:102FD000D2F81C560D426ED002EBC001D1F840561B
:102FE000B3EB154F0ED0D1F84056ADB29D4209D08B
:102FF000D1F84456B3EB154F04D0D1F84456ADB2D6
:103000009D4203D1012004B0BDE8F081D1F84056C3
:10301000D1F84066ADB2B5EB164F0ED18DF80A006F
:1030200002EBC0028DF80B408DF80C70D2F84426EC
:10303000ADF80020ADF8023036E0D1F84056D1F8B6
:1030400044662D0CB5EB164F18D18DF80A0002EB33
:10305000C0028DF80B408DF80C70D2F84426ADF804
:103060000020D1F84026ADF80220ADF8043000BFB2
:10307000D1F84016090CADF806103AE0D1F84456E4
:10308000D1F84066ADB2B5EB164F14D18DF80A00F9
:1030900002EBC0028DF80B408DF80C70ADF80030DB
:1030A000D2F84026ADF80220D1F84426120CADF833
:1030B0000420DDE7FFE7401C1C28FFF67FAF01205E
:1030C000D2F81C1604FA00F5294204D0401C1C2832
:1030D000F6DB002097E78DF80A00ADF80030ADF878
:1030E00004308DF80B408DF80C70ADF80230ADF85F
:1030F000063000EBD07121F00101401AADF8080054
:103100008DF80D406846FFF78BF97BE700600040C3
:103110007FB5C00040F0040009B1022200E00022A7
:1031200002430121304B0846D3F8045600FA01F45B
:1031300025422DD0D3F80C56254229D0D3F81C5661
:10314000254225D003EBC104D4F84056954203D064
:10315000D4F84456954202D1012004B070BDD4F891
:103160004056D4F84466B54212D18DF80A1003EBEC
:10317000C1038DF80B008DF80C00D3F840361B0C02
:10318000ADF80030D4F84036ADF80230130C19E039
:10319000491C1C29C8DB0121D3F81C4600FA01F5A3
:1031A0002C4204D0491C1C29F6DB0020D5E7130C67
:1031B0008DF80A10ADF800308DF80B008DF80C007A
:1031C000ADF80220ADF80430ADF8062001EBD17265
:1031D00022F00102891A8DF80D00ADF8081068463A
:1031E000FFF71EF9B8E700000060004010B507497E
:1031F0000020074C8880C88001462046FFF704F96C
:103200002046BDE810400121FFF7FEB8FC00002079
:103210000064004010B5094C00212046FFF790F8EB
:1032200001212046FFF78CF802212046FFF788F89D
:10323000034900200881488110BD0000006400405F
:10324000FC0000200300104601D0FFF761BF90B2E0
:10325000FFF7A6BE1FB501208DF80B008DF80C00FE
:103260000020ADF80000ADF80400ADF80200ADF8A4
:103270000600ADF808008DF80D0001248DF80A4015
:103280006846FFF7CDF8641C1C2CF7DB1FBD00005F
:103290002DE9FC410121480603F082F94FF400605A
:1032A000ADF8040001248DF8064048202D4D8DF81E
:1032B000070001A9284600F091FA2003ADF80400A8
:1032C00018208DF8070001A9284600F087FA264F3C
:1032D0003846FFF783F80120FFF7C8F900231A46A4
:1032E0001946012000F0D6F8204E02200025B070CB
:1032F0007070F57000F050F9FFF778FFFFF78AFF64
:10330000357013208DF800008DF801508DF80240C3
:103310008DF80340684601F0FFF814208DF8000096
:103320008DF801508DF802408DF80340684601F099
:10333000F3F815208DF800008DF801508DF802404B
:103340008DF80340684601F0E7F801220221384673
:10335000FFF7D2F8012210213846FFF7CDF8BDE87B
:10336000FC8100000008014000640040FC000020D7
:10337000F0B51A4D059EAC88EF88BC422CD0184F92
:1033800004EB840407EB840418B1277A07B1012702
:10339000077019B1607A00B1012008701AB1207A63
:1033A00038B160681060A17A03B1197056B100207D
:1033B00006E02068F6E72218431CD27A32541846F9
:1033C0008842F8DBA888401C80B2A880202801D35E
:1033D0000020A8800120F0BD0020F0BDFC000020EE
:1033E000B42000202DE9F041244CDDF818C02589D7
:1033F0006689AE420AD003DDC6F108073D4400E00D
:10340000AD1B022D02DA0020BDE8F08106EB860537
:103410001B4E06EB850510B104206A6001E0002018
:103420002A60287209B1022000E00020687208209A
:10343000A872002005E000BF1CF800102A18401CEC
:10344000D1729842F8DB002002E0E9185B1CC872D8
:10345000082BFADB6189491C89B26181082900D3F4
:103460006081207840B9012211460648FFF744F8F0
:103470000120207004F030F90120C5E7FC00002095
:1034800034230020006400400149487000F084B8F3
:10349000FC0000207FB51B4CE07000240125F8B132
:1034A00001282CD002281AD1C1F34F30ADF800000A
:1034B00004208DF80A4000EBC100ADF804208DF81F
:1034C0000B408DF80C50ADF80200ADF8063000BF8F
:1034D000ADF808408DF80D506846FEF7A1FF7FBD9E
:1034E0008DF80A50ADF80040ADF804408DF80B405F
:1034F0008DF80C50ADF80240ADF80640E8E7FFF754
:10350000A9FE7FBDFC0000200149887000F044B88E
:10351000FC00002038B51F4D2846FFF7BDF80021FC
:103520004FF0007003F03CF814208DF800000024E8
:103530008DF801408DF802408DF80340684600F098
:10354000EBFF15208DF800008DF801408DF802404A
:103550008DF80340684600F0DFFF13208DF800006F
:103560008DF8014001208DF802008DF80340684677
:1035700000F0D2FF002202212846FEF7BDFF002204
:1035800010212846FEF7B8FF002201212846FEF749
:10359000B3FF38BD006400400EB50021174A8DF816
:1035A00006108DF80710029193788DF802300120F3
:1035B00053780C2223B1012B0AD0022B11D115E034
:1035C0008DF804208DF805008DF80310122006E018
:1035D0008DF804208DF805008DF803100220ADF859
:1035E000000069460648FEF78FFF0EBD8DF80420E7
:1035F0008DF803108DF80500F1E70000FC000020B5
:103600000064004070470000F8B5012605468DF8BB
:10361000006000278DF8016002216846FDF78CFCF0
:1036200000B31148046894F8130110B104F11404B4
:1036300004E094F81902A8B104F58D7494B1A0784F
:1036400000060FD509A003F0F8FD0BA003F0F5FD6F
:103650003DB1EE70A07800F07F01A97009A000F0E4
:1036600038FF01273846F8BD200100205BB9CAD5D4
:10367000CFC2EB5D3A0D0A004D494C204F4E3A0D3A
:103680000A000000B8F6CAFD3A25640D0A000000E1
:103690000E4A0F4B07CA80EA03004FEA332381EA40
:1036A000030182F0A532884201D9431A00E00B1AC7
:1036B000914201D9891A00E0511A1944824201D974
:1036C000101A00E0801A0844C0437047E8F7FF1F53
:1036D00055AA55AA70B505464FF43026304600F07D
:1036E00063F8042811D1094C206940F002002061E0
:1036F0006561206940F040002061304600F054F8D8
:10370000216941F6FD721140216170BD0020024027
:1037100008490420CA68D20701D001207047CA684E
:10372000520701D502207047C968C906FBD503209E
:1037300070470000002002400248016941F080010A
:1037400001617047002002402DE9F04105464FF429
:1037500000570E46384600F027F8042814D10B4CC9
:10376000206940F0010020612E80B846384600F004
:103770001BF8BF1E042804D1300C6880404600F0BE
:1037800013F8216939402161BDE8F0810020024031
:10379000034802494160034941607047230167457E
:1037A00000200240AB89EFCD00B50346FFF7B0FF24
:1037B00003E000BFFFF7ACFF5B1E012803D0002B26
:1037C00000D1052000BD002BF4D1FAE7421A88424F
:1037D00002D2C0F58030421890B270472DE9F04116
:1037E000CA780025D30602F00F0201D58B781A4360
:1037F0000B884FF00F084FF0010C13F0FF0F1CD097
:10380000D0F800400E880CFA05F31E409E4210D1FD
:10381000AF0008FA07F624EA060602FA07F4344372
:10382000CE78282E02D0482E02D002E0436100E07C
:1038300003616D1C082DE5D304600B88FF2B1DD997
:103840004468002505F108060CFA06F30E881E40B0
:103850009E420FD1AF0008FA07F624EA060602FAE4
:1038600007F43443CE78282E00D14361CE78482E19
:1038700000D103616D1C082DE4D34460BDE8F081E4
:10388000F0B5144C002801DAE36900E06368420DEA
:10389000120185B2C0F301579540C0F30346032FD0
:1038A00005D0C2020AD50322B240934307E023F0B9
:1038B0007062636823F07063636002E0AB4343F0BF
:1038C000706201B12A43002801DAE261F0BD626052
:1038D000F0BD0000000001400246002092680A424C
:1038E00000D00120704741617047016170470AB103
:1038F00001617047416170472DE9F34F87B00D4674
:10390000079C01FB01F06443FCF7A6FE3D4A3E4BD9
:10391000FCF7B4FDCDE902012846FCF79DFE064602
:103920000F463A4A3A4BFCF7A9FDCDE90001394868
:10393000079900F0BDFDFCF7C7FE06908B462046B8
:10394000FCF78AFE80468946334A344BFCF796FDE5
:1039500004908A460798FCF77FFE04460D46304ADD
:10396000304BFCF78BFD304A304BFCF7E2FC534602
:10397000049AFCF77DFD5B46069AFCF7DAFCDDE96C
:103980000023FCF7D6FCDDE90223FCF771FDFCF710
:10399000B1FE0090264A274B30463946FCF76EFDB3
:1039A0000F4606462448079900F082FDFCF78CFE7E
:1039B00083468A46214A224B40464946FCF75EFD33
:1039C000804689461F4A204B20462946FCF756FD73
:1039D00000221E4BFCF7ADFC42464B46FCF748FD6F
:1039E0005A465346FCF7A5FC32463B46FCF7A1FC81
:1039F000FCF780FE0146009809B0BDE8F04FFCF7E7
:103A00004CBC0000B2AC806E2B1EF73EB94C2F2C84
:103A1000DD2F873F9175DD3693DD5021EC4E563F0B
:103A2000483657CD7344AE3F05172B6A302D63409F
:103A300078EC67B114C9773FD6EB7533981F2F1810
:103A40008CBFE93E2207B452D2CC793F0000F03F50
:103A50002DE9F04104464043FCF7F9FD05462146B7
:103A6000134800F025FDFCF72FFE06460F462846BA
:103A7000FCF72AFE0F4A104BFCF700FD80460D466E
:103A80002046FCF7E9FD0D4A0D4BFCF7F7FC0D4A0B
:103A90000D4BFCF7F0FC42462B46FCF74AFC324645
:103AA0003B46FCF7E5FCBDE8F041FCF723BE000017
:103AB00061C40435E93D976608F9383F55D33FD2D4
:103AC000F162C23F315F5E807DF6444030B5C1B0E7
:103AD00005460C464FF4807208496846FCF722FB05
:103AE00000221046694604E0AB5C4340521CC85CAF
:103AF000D2B2A242F8D341B030BD0000C087000866
:103B0000014949680160704728000020152203A17F
:103B1000022003F05BFE00F037FD00004861726494
:103B20004661756C74457863657074696F6E210DBC
:103B30000A00000002494CF6CC40086070470000C3
:103B40000030004002494AF6AA2008607047000091
:103B500000300040014948607047000000300040DC
:103B6000014988607047000000300040014908604A
:103B700070470000003000402DE9F04FCFA087B023
:103B80000068CFA10690D1E90001CDE90101CEA0E6
:103B9000D0E90010CDE9041000200390CCA003F080
:103BA0004CFBD04C4FF0030A0025A06901264FF0D2
:103BB000020B80F800A04571C671057280F80FB045
:103BC0004FF4837739461030FCF7C5FAA0693946BF
:103BD00000F58B70FCF7BFFA00F08CFA606900F01A
:103BE00097FA332002F066FF04F11400FFF73EF964
:103BF00000287AD0606AB046A94606708670C57003
:103C000005716846FFF77CFFB74DAF1C68782978CF
:103C100088424CD14FF47A616846FFF73BF8F0B325
:103C2000606AC078002860D0606A00F10A0180F8FC
:103C300000900279515CC1F1FF018DF81810132139
:103C4000FCF789FA6846FFF75BFFA84E6846B16A41
:103C5000FFF720F80028F9D0606A464606A980F8E8
:103C6000008080F802B080F8049080F80390C84685
:103C7000012002F0EDFF6846FFF742FF4FF4FA6AB9
:103C80004FEA050999F8011099F80020914252D1A4
:103C900051466846FEF7FEFF0028F3D000E003E03F
:103CA000606AC078B0B352E0FDF7D2FBAEE7C65D04
:103CB000401C6870606A007920B1012805D0022894
:103CC0000ED113E031468AA001E031468BA000F00E
:103CD00000FC636A03F10B011879421C1A71465407
:103CE000606AC078002891D09EE75FE0314686A0E8
:103CF00000F0EFFB606A00F10B0103795A1C0271BE
:103D00005E5480F80380027B4146082A03D0942A3F
:103D100005D007E044E0427B082A08D002E0427B5D
:103D2000942A04D0A26904231370C1707CE7A369AC
:103D300083F800A0F9E7CD5D491C89F801102946F8
:103D400074A000F0C6FBCC2D9CD1606AC670132114
:103D5000606AFCF700FA6846FFF7D2FE5021684619
:103D6000FEF798FF0028F9D0012000F0F3F8A069D1
:103D70004FF49679007803281BD004A9062002F09E
:103D800031FF6846FFF7BCFE606AC6744FEA090659
:103D900000F0D8FA31466846FEF77CFF48BB5CE08D
:103DA0005F4806705FA003F048FA002007B0BDE846
:103DB000F08F00200621024601AD4B1E2F5C401CF7
:103DC0003A44C0B2D2B29842F8DB6818294600F8EB
:103DD000012C062002F006FF6846FFF791FE606A9C
:103DE000C6744E4600F0E6F831466846FEF752FFCC
:103DF00008B10398DAE7606A90F866010028F1D00C
:103E0000002517E000EB051090F8491041290FD16B
:103E100090F84A1061B901210391A2691169B9B101
:103E200090F84800C2F8160142A000BF00F051FB14
:103E30006D1CEDB2606A90F84410A942E2D800F11E
:103E4000430080F8018080F8008080F82381C9E772
:103E500090F8481011613BA0E8E7606A90F86601AD
:103E6000002895D0002517E000EB051090F84910C8
:103E700041290FD190F84A1061B901210391A1693C
:103E800090F848000A69AAB1C1F81601114629A0A4
:103E900000F01FFB6D1CEDB2606A90F84410A9425F
:103EA000E2D800F1430080F8018080F8008080F8BB
:103EB00023816DE70861014622A0E9E701000000C7
:103EC000686AF10100000000C233F10100E7000060
:103ED0005363616E2049736F393134312E2E2E0DAC
:103EE0000A00000008010020FE39002068010020BF
:103EF0005379733A253032580D0A00004B657931F9
:103F00003A253032580D0A004B6579323A25303265
:103F1000580D0A0043433D253032580D0A00000079
:103F2000CE0000206E6F2072656320307843430D11
:103F30000A00000045435532233A253032580D0A15
:103F40000000000045435531233A253032580D0A10
:103F50000000000070B5094C05463021606A13303E
:103F6000FCF7F9F8002D07D0606ABDE870404FF407
:103F700081714330FCF7EFB870BD000008010020EC
:103F800008B56946032003F003FC00280ED008485A
:103F90009DF80020811C03785A540178491CCAB24C
:103FA000027041788A4201D1491C417008BD00006D
:103FB000FE3900202DE9F041DFF8308101254C4C1D
:103FC000002600BF98F8011098F80020914228D1EF
:103FD000606A007D002868D0454832211030FEF725
:103FE00059FE0028EED0616A91F8442091F83C0017
:103FF00001EB021282F8450091F8440091F83C2050
:1040000001EB001046301C31FCF78CF8606A00F1BF
:104010004300417801F101014170057080F823519E
:104020003BE0324A3248921C10308F5C491C88F8C1
:104030000110FFF765FD606AC17C0029C2D0877658
:10404000017DA1B390F83C1000F11C024B1C80F8DC
:104050003C308F5490F83C100B29B3D3626A0B218B
:1040600092F8442000EB021282F8451090F84410B8
:10407000C26900EB0111C1F84620026AC1F84A206A
:10408000828CA1F84E2010F8262F81F85020817FD5
:10409000491C8177457780F840510020FFF75AFF8F
:1040A000606AC574067580F83C60BDE8F081FFE782
:1040B00090F83C2000F11C01575490F83C1011B1CD
:1040C00001290AD106E0817E48297FF47BAF80F880
:1040D0003C5077E7817E6B2902D080F83C6071E725
:1040E000022180F83C1005756CE70000FE390020C5
:1040F0000801002010B54FF400710348FCF72BF8BD
:1041000002490148486210BDF42300200801002044
:1041100038B504460121880402F042FA0E4A012112
:10412000802010604FF01000ADF800008DF80210F4
:104130000A4D8DF8030069462846FFF74FFB102112
:104140002846FFF7D0FB21460320FDF777FA044904
:1041500000200870487038BD04E100E0000801400C
:10416000FE3900202DE9FE4364A1664CD1E900012F
:10417000CDE90101A0690521002701704FF0010878
:10418000477180F8078007720221C1734FF4837969
:104190003E46454649461030FBF7DDFFA0694946DB
:1041A00000F58B70FBF7D7FF57A003F046F8FFF739
:1041B000A1FF42F6AA00FFF7ABFF02F017FC0120B7
:1041C000FFF7C8FE606AC5746846FFF799FC00BF38
:1041D00000F0B8F8606A90F8660118B3002513E0A3
:1041E00000EB051090F84910C1290BD1A2690127F5
:1041F0001169B9B390F84800C2F8160147A000BF92
:1042000000F067F96D1CEDB2606A90F84410A942A5
:10421000E6D800F143004670067080F823616846D6
:10422000FFF76EFC27B3012FD2D14048C16A684620
:10423000FEF730FD0028CBD00120FFF78BFE01A94F
:10424000062002F0CFFC6846FFF75AFC616A00279F
:1042500081F8138000F076F8606A90F86601A0B3E8
:10426000002524E0FFE790F84810116130A0C7E76F
:10427000C8216846FEF70EFD0028A9D03BE000BF2C
:1042800000EB051090F8491041290ED190F84A1022
:1042900059B9A26990F8480001271169814204D0F8
:1042A000C2F816011DA000F014F96D1CEDB2606A91
:1042B00090F84410A942E3D800F14300467006701C
:1042C00080F823616846FFF71BFC57B1012FC1D16D
:1042D00046216846FEF7DEFC0028BBD00120BDE881
:1042E000FE834FF496716846FEF7D4FC0028B1D0E7
:1042F000134981F800800020F1E70000C233F1018A
:1043000000E70000080100205363616E204B7770C6
:1043100032356270732E2E2E0D0A00004543553241
:10432000233A253032580D0A0000000068010020B1
:1043300045435531233A253032580D0A000000001C
:10434000CF0000202DE9F041344E354D0124707826
:104350003178884260D03149891C425C401C7070C1
:10436000686AC17C0029F2D08276017D89B390F819
:104370003C7000F11C017B1C80F83C307A5490F8B2
:104380003C20202A01D30023037590F83D3093424E
:10439000DDD190F8443000EB031383F8452090F80A
:1043A000443090F83C2000EB03104630FBF7BAFE97
:1043B000686A00F14300417801F101014170047025
:1043C00080F823414FF00000FFF7C4FD686AC47411
:1043D000BDE7FFE7417D89B190F83C1000F11C0773
:1043E0004B1C80F83C30CA5590F83C100429AED1E3
:1043F000817E491D80F83D100475A8E7910906D01B
:1044000002F03F01091D80F83D10047500E044757D
:10441000027780F83C409AE7BDE8F081FE39002041
:10442000080100200F4810B500688179052917D9C7
:1044300000240D498471022008720C490120887003
:104440000B48FFF75DFB0BA002F0F7FE08480930B0
:1044500000F8014BFFF754FBBDE81040FCF784BBAC
:1044600010BD000020010020781800206C00002002
:10447000E80000205B4F42445D3A4C696E6B42722B
:1044800065616B0D0A000000152203A1022003F0F4
:104490009DF900F079F800004D656D4D616E616722
:1044A00065457863657074696F6E210D0A000000C0
:1044B00070B505460846FCF7CAF804462946FBF7DE
:1044C000B6FE2146FBF7B3FE2146BDE87040FBF780
:1044D000AEBE0FB410B5C0B043AA6846429903F00F
:1044E000E9FA044682B26946022003F06FF940B04F
:1044F000204610BC5DF814FB0F2203A1022003F03C
:1045000065F900F041F800004E4D4945786365704B
:1045100074696F6E210D0A00F0B50F22C57803781B
:104520004FF0E0210124E5B1D1F80C5D467805F4A7
:10453000E065C5F5E0652D0AC5F10407EA40857818
:10454000BE40154035430B442A0183F8002400780F
:10455000420900F01F00844001EB8200C0F80041D6
:10456000F0BD03F01F008440580901EB8000C0F843
:104570008041F0BD024908430249086070470000CD
:104580000000FA050CED00E005480168054A01F459
:10459000E06141EA02010160BFF3408FFEE70000E5
:1045A0000CED00E00400FA0510B5084C002040F6C0
:1045B0009A41206020710648FBF7CDFD4FF48061E1
:1045C0000448FBF7C8FD0320A07010BD6C0000205C
:1045D000CA0B0020BC0100202DE9F0414C4F002502
:1045E000A7F11404787880B14A4E40F29311A27872
:1045F00070784FF0010801FB0061F2B3207848B1F8
:10460000012823D002287AD171E02570A570FD70B1
:10461000BDE8F081B1F80320491D012003F0D6F870
:10462000707840F2931100FB0160B0F80310401D58
:1046300002F00EFE0A2187F80380617084F8008082
:10464000BDE8F04132480C38FFF75ABAF87870B339
:104650002F4840F6B8310C38FEF71CFB0028D7D0A5
:1046600094F901102CA0FFF734FF94F90100002801
:1046700035DD2BA002F0E1FD00E043E0707840F270
:10468000931101FB00610120B1F80320491D03F0E3
:104690009DF8707840F2931100FB0160B0F80310B0
:1046A000401D02F0D5FD6078401E6070B0E720A08C
:1046B00002F0C3FD707840F2931100FB0160857039
:1046C000707800FB0160A0F803507078401CC0B205
:1046D0007070082800D375702570A57098E70C4895
:1046E0000C38FFF70DFA0220207091E707E0084828
:1046F0004FF47A710C38FEF7CDFA002888D0257077
:10470000FD70EAE78878002882D084F802807FE78D
:104710006C000020CA0B0020636E743D256400000D
:1047200073656E6420616761696E0D0A00000000A8
:10473000CAD5B5BDD3A6B4F00D0A000070B54FF4CC
:1047400030711848FBF707FD174D002419212C7014
:104750001648FBF700FD154819214030C0F80E40FF
:10476000C0F81240C4820476C0F81940C0F81D4059
:1047700080F82140C5F8254085F82940C0F822403E
:10478000C0F8264044852738FBF7E5FC07481C2184
:104790003230FBF7E0FCBDE870404FF48271044812
:1047A000FBF7D9BC78180020CC000020381B002073
:1047B000A91E002030B5A1B004464FF0FF3580227D
:1047C0000C496846FBF7AEFC684600EB8400202CE1
:1047D00002D850F8045C0AE0402C02D850F8845CFF
:1047E00005E0602C03D8A0F58050D0F8FC5E21B025
:1047F000284630BD408700082DE9F04704460027D1
:104800000078DFF84CA2914D3E464FF002090AF1C4
:104810002A0805287ED2DFE800F0032E53EAF800CC
:104820006421601CFEF736FAE8B3884A022126327A
:104830000C2000F0DFFAA0B186A002F0FEFC95F893
:10484000270095F8261000EB01208008FBF7FFFEFB
:10485000C5F8EA00FBF738FF02460B4680A0FFF7D9
:1048600038FE601CFFF74CF9D4F801107FA0FFF769
:1048700030FE0120C7E06421601CFEF70BFA90B106
:10488000724A012128320D2000F0B4FA48B17BA011
:1048900002F0D3FC95F8281085F8E3107AA0FFF712
:1048A00018FE601C00E019E0FFF72AF9D4F80110A7
:1048B0006EA0FFF70EFE84F800908AF80760C1E052
:1048C00095F8E2004FF0030930B1012807D0022823
:1048D0002FD0032802D170E084F80090B2E0642168
:1048E000601CFEF7D7F998B3584A02212B321020EA
:1048F00000F080FA88B195F82C0095F82B1000EBA9
:104900000120FBF7A9FE644A644BFBF7B7FDFBF7F8
:10491000F1FE00E095E0C5F8EE00601CFFF7F0F84E
:104920005FA002F08AFCD4F8011050A0FFF7D1FD7F
:10493000D2E76421601CFEF7ADF948B19AF8070090
:10494000D04630B101281AD0022828D088F8076054
:1049500078E03E4A012125320B2000F04BFA28B1C5
:1049600095F82500FBF773FEC5F8F60098F80710D8
:10497000601C491C88F80710FFF7C2F862E0334A50
:1049800001212A320F2000F035FA0028EED095F8E8
:104990002A002838FBF752FEC5F8FA00E6E72B4A52
:1049A00001211B32052000F025FAE0B1E87E28380D
:1049B000FBF744FEC5F8F20015E06421601CFEF729
:1049C00069F908B3214A0221AB32432000F012FA00
:1049D00048B195F8AC0095F8AB1000EB0120FBF75F
:1049E00036FEC5F8FE00601CFFF78AF874E798F8F9
:1049F000001001290AD147F2305108F10100FEF7F9
:104A000049F918B1042020701CE008E0601CFFF791
:104A100077F8D4F8011015A0FFF75BFD0EE06421D4
:104A2000601CFEF737F968B10020FEF7EDFD0128A4
:104A300001D188F80090601CFFF762F8267001270A
:104A400000E026703846BDE8F087000078180020A6
:104A5000CC000020B6C1C8A1D7AACBD90D0A00004E
:104A6000726D703A25302E32660D0A0053797354F8
:104A700069636B3D25750D0A00000000B6C1C8A131
:104A8000CBD9B6C80D0A00007673733D25646B6DF3
:104A90002F680D0A000000007B14AE47E17A843FC6
:104AA000B6C1C8A1BFD5C6F8C1F7C1BF0D0A000085
:104AB000F8B5364C0026054606602068012346718D
:104AC000C37101720221C17380F8136180F8196209
:104AD0000178072906D0092904D0062904D008291D
:104AE00002D005E02A4901E040F2DF71C0F8011070
:104AF000FCF730FE20684179012945D190F8131167
:104B0000062914D3417E827D01EB0261C27D007EC5
:104B1000120402EB0020084428602068437E0093C2
:104B2000037EC27D817D1BA0FFF7D3FC0126206898
:104B300090F8191206291CD300F58E70C1780278FE
:104B400001EB0261427880784FEA024202EB0020DA
:104B50000844296840EA01002860206800F58E704A
:104B6000C378009383784278017812A0FFF7B1FCF4
:104B700001262868C3B20093010EC0F30723C0F3D7
:104B8000074214A0FFF7A5FC3046F8BD2001002025
:104B9000F133DB184543553123D6A7B3D6D7D63AE0
:104BA0002530325825303258253032582530325889
:104BB0000D0A00004543553223D6A7B3D6D7D63ABF
:104BC0002530325825303258253032582530325869
:104BD0000D0A0000414C4C23D6A7B3D6D7D63A25B0
:104BE0003032582530325825303258253032580D61
:104BF0000A0000002DE9F05F044600784FF000083D
:104C00005D4F5E4E4FF004094FF0030A4FF0010B69
:104C10004546062870D2DFE800F003072F516C707C
:104C20003D7184F800B0A4E05021601CFEF732F81A
:104C300008B352480021D630FFF73AFF60B1601C3C
:104C4000FEF75EFFD6F8D600C00702D00220207023
:104C500026E084F8009023E03879401CC0B2387117
:104C6000032808D93D7146492570022030724FF063
:104C7000010881F802B07CE06421601CFEF70AF8AC
:104C8000B0B33E482021DA30FFF712FF50B1601C6C
:104C9000FEF736FFD6F8DA00C007DAD084F800A0B5
:104CA0003D7166E03879401CC0B23871032860D984
:104CB0003D7184F800A0C6F8DA505AE06421601C07
:104CC000FDF7E8FFA0B12D484021DE30FFF7F0FEF0
:104CD00018B1601CFEF714FFBBE73879401CC0B266
:104CE0003871032845D93D7184F80090C6F8DE502C
:104CF0003FE0052020703CE03AE01020FFF75AFD2D
:104D0000D6F8D610884320D00B20FFF753FD8046FD
:104D10000F20FFF74FFD40EA08070520FFF74AFD87
:104D2000D6F8D6103843884315D04320FFF742FD0C
:104D3000D6F8DE10884315D012A002F07EFA86F86D
:104D4000E25025704FF0010813E015A002F075FA4B
:104D500086F8E2B0F5E719A002F06FFA022086F8B3
:104D6000E200EEE71CA002F068FA86F8E2A0E8E7AD
:104D700025704046BDE8F09FCC0000207818002048
:104D80006C0000205B4F42445D3A43414C434F4925
:104D90004C5F4E554C4C5F545950450D0A00000075
:104DA0005B4F42445D3A43414C434F494C5F4D4158
:104DB000465F545950450D0A000000005B4F4244C5
:104DC0005D3A43414C434F494C5F4D41505F54590C
:104DD00050450D0A000000005B4F42445D3A4341DC
:104DE0004C434F494C5F4142535F545950450D0A63
:104DF000000000002DE9F041374D034614462868B5
:104E0000002601224671C27103720222C27380F829
:104E100013610F4680F819620178072906D0092925
:104E200004D0062904D0082902D005E02B4901E06E
:104E300040F2DF71C0F80110FCF78CFC2868417962
:104E400001292AD190F81311C9B10126012F04D0EC
:104E5000022F04D0042F1CD106E0807D22E0807D4B
:104E600020702868C07D25E0807D20702868C07D86
:104E700060702868007EA0702868407E2AE090F864
:104E8000191251B10126012F0AD0022F0CD0042F84
:104E900012D013A002F0D1F900263046BDE8F0810F
:104EA00090F81C012070F8E790F81C012070286829
:104EB00090F81D016070F0E790F81C0120702868E0
:104EC00090F81D016070286890F81E01A070286895
:104ED00090F81F01E070E0E720010020F133DB18BB
:104EE0005B4F42445D3ACAFDBEDDC1F7B3A4B6C80C
:104EF000B4EDCEF30D0A00002DE9F04706460C464E
:104F000000784978884202D30120BDE8F087642107
:104F1000701CFDF7BFFE0028F7D03178E01CDFF8E9
:104F2000D4800D5C344FA8F15B0918F8050019F81E
:104F30000510C2192846FFF75DFFF0B3A078401CAA
:104F4000A070B4F8032304F20310511CA4F8031357
:104F5000155419F80510012906D007F1010C022992
:104F600006D004293DD111E018F80510CB5D32E0E0
:104F700018F80510B4F80323CB5D511CA4F80313F3
:104F8000135418F8051011F80C3024E018F8051027
:104F9000B4F80323CB5D511CA4F80313135418F881
:104FA0000510B4F8032311F80C30511CA4F80313B6
:104FB000135418F80520104900E012E0891C535CD6
:104FC000B4F80323511CA4F8031313540A4918F826
:104FD0000520C91C535CB4F803134A1CA4F803232E
:104FE0000B54701CFEF78CFD3078401C3070002094
:104FF0008BE70000E3860008861800202DE9FE4FAD
:10500000DFF8F893FF4DDFF8F8B399F806000024B5
:10501000DFF8F483A5F120060127E8B999F8080024
:1050200001287ED09BF80000E8B3F8A002F005F953
:1050300089F8067089F8074089F8084005F10A02E6
:1050400089F8094002211170C9F8AF422C70681C20
:10505000FEF756FDB470F47099F80800CA460128AE
:1050600064D09BF80000F0B1E64842F210710838B5
:10507000FDF710FE00287DD0EBA002F0DEF8B94667
:1050800088F80A71FDF750FDD0BBFDF7FFFBB8BBF8
:10509000FDF764FBA0BBFDF791FC88BBE54FB47046
:1050A000E5A0B96A00E04AE2FFF713FAFEF764FDF3
:1050B00030BBB078012809D1B86A401DB8623C28DD
:1050C00001D31420B862DB4802F0A8FCF470F96A3E
:1050D000DFA0FFF7FEF9FFF745F888B9F07801285F
:1050E00009D1F86A401DF8626E2801D33220F862B7
:1050F000D04802F093FCDD4888F80A41006804704B
:1051000088F8004098F80A01002833D0D8A002F0AF
:1051100094F8DA4A8AF808900221917074722C701F
:1051200000E003E086F80A90681C09E2B5480838F8
:10513000FEF7E6FCDFF848B3717A0BF2031000903B
:10514000D0480BF2053A02900C2939D2DFE801F081
:105150000616396886ACCDF7F6F5F4F3A948FFF7E3
:1051600049FD68B32C70681CFEF7CAFCA54877722D
:105170000B3000E008E2FEF7C3FCDCE1A148FFF7DA
:105180003BFB70B14D46D9F8EA00FBF737FDBC4A4E
:1051900095F8E310D5F8EA00133AFCF71DF8022061
:1051A0007072B07A50B1B8A002F047F88AF8017076
:1051B000052188F8061088F80070B472FFF732F9FC
:1051C000B9E198F8000048B3032070722C70681C95
:1051D000FEF796FC98F80610022906D0032914D091
:1051E000052915D006290FD115E08BF80070B8F805
:1051F00008018549C2B25D468BF801200831E81CE0
:10520000FAF790FFA5F8034395E17E48153803E0CF
:105210008AF800708FE1A24807708CE177728AE10A
:105220009BF80010584601F00F02012A05D0681CB7
:10523000FEF766FC2C7005207CE141F00201017054
:10524000A0F8034384704FF496710098FAF783FF37
:10525000681CFEF755FC2C7004206BE188496948F6
:10526000FFF74AFE0028A9D09BF8000040F0040197
:105270008BF80010681CFEF743FC2C707772BBF8AB
:105280000323A8F808219BF8020088F80700454688
:1052900000990298FAF746FF5FF0070240F26511A5
:1052A000804800F00DFC62E09AF80000574600F0DC
:1052B0000F00012805D0681CFEF722FC2C70072087
:1052C00038E179A001F0B9FF3978781D41F0020189
:1052D0003970FC703C71BC70FF21FAF73CFF681C10
:1052E000FEF70EFC2C70062024E175494548FBF7BB
:1052F0006FFE0028B7D073A001F09FFF9AF800005E
:1053000040F004018AF80010681CFEF7F9FB2C70CD
:1053100077729AF80400454688F8070080B100EBE0
:10532000800632460AF105010298FAF7FBFE761C68
:10533000A5F8086106E022E106E14EE032E018E05F
:10534000A5F8087165A001F078FF9AF801005646AB
:1053500030B1042240F26511524800F06DFC05E0C6
:105360000A2240F265114F4800F0AAFB74702C70BD
:1053700024E74B4F387800F00F00012805D0681C57
:10538000FEF7BEFB2C700920D4E057A001F055FFBA
:10539000387840F002003870681CFEF7B1FB2C70C2
:1053A0000820C7E01748FBF7A3FC0028E0D054A072
:1053B00001F043FF3A48017841F004010170681C94
:1053C000FEF79EFB2C7077720B2240F26511354878
:1053D00000F076FB88F80040F0E6DFF82880A8F1BE
:1053E000150898F8000000F00F00012804D0681C90
:1053F000FEF786FB2C7011E78EE000007818002085
:1054000044000020EC000020C0080020BFAACABC55
:10541000BDF8C8EB454355A3ACB3F5CABCBBAFB2AE
:10542000CECAFD0D0A000000C8ABC9A8C3E80D0A2A
:105430000000000068010020736176657365742EBA
:105440004B5F44656C61793D25640D0A00000000E6
:10545000736176657365742E4B323030305F44650E
:105460006C61793D25640D0A0000000020010020D8
:10547000BBD8B8B4BDE1B9FB000000006C0000204F
:10548000A41B0020CA090020B5E3BBF0B6C1C8A127
:10549000D2BBB4CEB9CAD5CFC2EB0D0A0000000012
:1054A000AD1F0020BC0100205B4F42445D3A647494
:1054B0006320726561642073746172740D0A000068
:1054C000A91E00205B4F42445D3A647463207265FC
:1054D000616420656E640D0A00000000647463203E
:1054E000646164610D0A00005B4F42445D3A64747C
:1054F0006320636C6561722073746172740D0A00BD
:105500005B4F42445D3A64746320636C6561722052
:10551000656E640D0A0000001CA001F08EFE98F874
:105520000010681C41F0020188F80010FEF7E8FA4C
:105530002C700A20707299F80800012824D01948AC
:10554000BDE8FE4FFEF7DCBAFBF77EFD16A001F0CA
:1055500074FE14480D38017841F004010170681C94
:10556000FEF7CEFA2C7011207772A8F808010246D7
:10557000454613490298FAF7D5FD08228EE62C70AD
:10558000681CFEF7BDFA49E6BDE8FE8F5B4F42445A
:105590005D3A56696E20526561642073746172745D
:1055A0000D0A0000E40000205B4F42445D3A56695A
:1055B0006E205265616420656E640D0A0000000073
:1055C000161B00202DE9F04781463C480D46144645
:1055D0009846DDF820A0D0F80A00FBF775F8002205
:1055E000374BFAF7BCFF06460F466FF00D014846F1
:1055F000FAF793FEFBF768F832463B46FAF73EFFB0
:10560000FBF778F807462F494046FAF746FE06466C
:105610002D493846FAF741FE3146FAF708FE804632
:105620002A4F2046FBF750F8294E00223346FAF75E
:1056300080FEFBF732F8274CBD4216DA3746C6B279
:105640002846FBF741F800223B46FAF772FEFBF7CB
:1056500024F8C0B23146FEF74FF94146FAF7E7FDAC
:10566000FBF732F81C4A1D4B09E0C0B2FEF7F0F917
:105670004146FAF7DCFDFBF727F8194A194BFAF710
:10568000FDFEFBF737F805462146A04202DDFAF79A
:10569000C8FDF8E75046FAF7DAFFFBF715F80022E5
:1056A000114BFAF75CFF0022104BFAF758FFFBF79B
:1056B00021F82946BDE8F047FAF7B9BD781800206F
:1056C0000000084000007F43333353400000824213
:1056D0000000444000805B438638D6C56DE4294015
:1056E0009A99999999993D4000408F400020AC408B
:1056F00070B50D46FAF7E8FF0E4A0F4BFAF7BEFEFB
:10570000FAF7F8FF04460D4E03E000BFFAF789FDF3
:1057100004463146B442F9DC2846FAF798FF0849B6
:10572000FAF7BBFD0749FAF7B8FD2146BDE870401E
:10573000FAF77DBDC694FE147D74D53F00805B43AF
:1057400000007A440000614510B504460846114641
:10575000FAF76DFD2146FAF76AFDFAF7B5FF044A3C
:10576000044BFAF78BFEBDE81040FAF7C3BF000008
:1057700058207A522635843F2DE9FC5F01A8FEF7B8
:10578000BFF940480199404CD0F80120C0F8011001
:105790008E1AD4F8EA0094F8E370D4F8EE90D4F8B6
:1057A000F2A0D4F8FA80D4F8F610D4F8FE20002540
:1057B00004F5307B27B9DBF811C0B444CBF811C035
:1057C00094F8E23083B1012B04D0022B05D0032BD7
:1057D0000AD12CE0314648462EE00B46424651465F
:1057E0000096FFF7EFFE0546DBF809002946FAF7B9
:1057F000C6FCDFF89890DFF89880CBF80900052FF9
:105800001DD83046FAF728FF02460B4600204946CD
:10581000FAF7A5FEFAF76EFF46464146FAF707FD8E
:105820003146FAF704FD2946FAF701FD26E0D4F8DF
:105830000A10FFF789FF3146FFF75AFFD3E73846D2
:10584000FAF705FF07463046FAF706FF02460B4611
:1058500000204946FAF783FEFAF74CFF46464146D8
:10586000FAF7E5FC3146FAF7E2FC2946FAF7DFFCE5
:105870000849FAF7DCFC3946FAF70FFDC4F8AF0225
:10588000BDE8FC9FF10000207818002000408F4008
:10589000000070420000C842704700002DE9F04748
:1058A000804632214C48FDF71BFA002817D0FBF741
:1058B000C9FD494F494D0024103F06464FF00109EC
:1058C000B8F1000F01D07C700BE0787848B1B8785F
:1058D0001C280ED2B878411C25F81060B970BDE8BC
:1058E000F08787F801901C213C48FAF734FCBC7023
:1058F000F0E77C700022104605EB400635F81030CA
:1059000071888B4203D9738025F810100122401C46
:10591000C0B21B28F0D3002AECD100214FEA0100CD
:1059200005EB4002401C928AC0B2114489B208289B
:10593000F6D3C808FAF790FE294A2A4BFAF79EFDDB
:10594000FAF7D8FE2849FAF772FCB860FAF7BCFEFD
:1059500002460B4625A0FEF7BCFD2749B868274D37
:10596000274E884218DBFC7038780028B7D1387988
:10597000401CC0B238710A28B1D33C7187F800903E
:1059800085F80290002240213046FDF7B0FFBDE8C7
:10599000F0471CA001F051BC3C71387800289ED023
:1059A000F878401CC0B2F8700A2898D3FC701BA08D
:1059B00001F043FC1F48007A012890D01EA001F09E
:1059C0003CFC03203C70A8702C713046BDE8F047C9
:1059D00001224021FDF78BBF540000203001002040
:1059E000745E6397A8DE4A3F00003041506F7765D0
:1059F000723A2566560D0A009A9951416C000020B2
:105A000000080140B5E7D1B9BCECB2E2B3F63A41C7
:105A10006363204F6E210D0A00000000B5E7D1B985
:105A2000BCECB2E2B3F63A416363204F6666210DE7
:105A30000A00000078180020B5E7D1B9BCECB2E24A
:105A4000CFA8BBF00D0A0000012904D109494A88FA
:105A50000B889A4201D1002070470B1DD25C027066
:105A60004888401C80B24880FF2801D90020488027
:105A700001207047BC07002010B54FF480610C482E
:105A8000FAF769FB4FF400710A48FAF764FB0A4C15
:105A90004FF48071201DFAF75EFB0020074A20803A
:105AA00060800449116101220A70A1F8010010BD53
:105AB000BC010020BC050020BC07002058000020CD
:105AC0002DE9F74382B023210170BDF80C10A0F836
:105AD0000110164605210446ADF80010504D012274
